{
  "contractName": "TodoArray",
  "abi": [
    {
      "constant": false,
      "inputs": [],
      "name": "kill",
      "outputs": [],
      "payable": false,
      "stateMutability": "nonpayable",
      "type": "function"
    },
    {
      "constant": true,
      "inputs": [],
      "name": "owner",
      "outputs": [
        {
          "name": "",
          "type": "address"
        }
      ],
      "payable": false,
      "stateMutability": "view",
      "type": "function"
    },
    {
      "inputs": [],
      "payable": false,
      "stateMutability": "nonpayable",
      "type": "constructor"
    }
  ],
  "bytecode": "0x6060604052341561000f57600080fd5b33600160006101000a81548173ffffffffffffffffffffffffffffffffffffffff021916908373ffffffffffffffffffffffffffffffffffffffff1602179055506101a08061005f6000396000f30060606040526004361061004c576000357c0100000000000000000000000000000000000000000000000000000000900463ffffffff16806341c0e1b5146100515780638da5cb5b14610066575b600080fd5b341561005c57600080fd5b6100646100bb565b005b341561007157600080fd5b61007961014e565b604051808273ffffffffffffffffffffffffffffffffffffffff1673ffffffffffffffffffffffffffffffffffffffff16815260200191505060405180910390f35b600160009054906101000a900473ffffffffffffffffffffffffffffffffffffffff1673ffffffffffffffffffffffffffffffffffffffff163373ffffffffffffffffffffffffffffffffffffffff16141561014c57600160009054906101000a900473ffffffffffffffffffffffffffffffffffffffff1673ffffffffffffffffffffffffffffffffffffffff16ff5b565b600160009054906101000a900473ffffffffffffffffffffffffffffffffffffffff16815600a165627a7a72305820e512bd2a7ce4826ead8e9060a5f705947c2c8f4c6c05882fc93084943b14d2b90029",
  "source": "pragma solidity ^0.4.18;\n\ncontract TodoArray {\n\n  /* Variables */\n  struct TodoItem {\n    string name; // name of the todo item\n    uint status; // status of the todo 0 = not_done, 1 = done\n  }\n  mapping (address => TodoItem[]) todos;       // an array of TodoItem(s) assigned to each address(user)\n  address public owner;\n\n  /* Modifiers */\n  modifier restricted() {\n    if (msg.sender == owner) _;\n  }\n\n  /* Methods */\n  function TodoArray() public {\n    owner = msg.sender;\n  }\n\n  /* function add(string todo, uint status) public {\n    todos.push(TodoItem(todo, status));\n    return todos[msg.sender];\n  }\n\n  function getTodos() public {\n    return todos[msg.sender];\n  } */\n\n  function kill() public {\n    if (msg.sender == owner)  // only allow this action if the account sending the signal is the creator\n      selfdestruct(owner);       // kills this contract and sends remaining funds back to creator\n  }\n}\n",
  "sourcePath": "/Users/andrewpierno/Desktop/personal/dev/blockchain/ap_todo/contracts/TodoArray.sol",
  "compiler": {
    "name": "solc",
    "version": "0.4.18+commit.9cf6e910.Emscripten.clang"
  },
  "schemaVersion": "1.0.1",
  "updatedAt": "2017-12-27T12:02:49.451Z"
}