{
  "contractName": "Todo",
  "abi": [
    {
      "constant": true,
      "inputs": [],
      "name": "owner",
      "outputs": [
        {
          "name": "",
          "type": "address"
        }
      ],
      "payable": false,
      "stateMutability": "view",
      "type": "function"
    },
    {
      "constant": true,
      "inputs": [
        {
          "name": "addr",
          "type": "address"
        }
      ],
      "name": "getTodos",
      "outputs": [
        {
          "name": "",
          "type": "string"
        }
      ],
      "payable": false,
      "stateMutability": "view",
      "type": "function"
    },
    {
      "constant": false,
      "inputs": [
        {
          "name": "todo",
          "type": "string"
        }
      ],
      "name": "change",
      "outputs": [],
      "payable": false,
      "stateMutability": "nonpayable",
      "type": "function"
    },
    {
      "inputs": [],
      "payable": false,
      "stateMutability": "nonpayable",
      "type": "constructor"
    },
    {
      "anonymous": false,
      "inputs": [
        {
          "indexed": true,
          "name": "_from",
          "type": "address"
        },
        {
          "indexed": false,
          "name": "todos",
          "type": "string"
        }
      ],
      "name": "TodoChange",
      "type": "event"
    },
    {
      "anonymous": false,
      "inputs": [
        {
          "indexed": false,
          "name": "timestamp",
          "type": "uint256"
        }
      ],
      "name": "GetTodoEvent",
      "type": "event"
    }
  ],
  "bytecode": "0x6060604052341561000f57600080fd5b33600160006101000a81548173ffffffffffffffffffffffffffffffffffffffff021916908373ffffffffffffffffffffffffffffffffffffffff16021790555061054b8061005f6000396000f300606060405260043610610057576000357c0100000000000000000000000000000000000000000000000000000000900463ffffffff1680638da5cb5b1461005c578063b9cdbde9146100b1578063c1dcab1414610163575b600080fd5b341561006757600080fd5b61006f6101c0565b604051808273ffffffffffffffffffffffffffffffffffffffff1673ffffffffffffffffffffffffffffffffffffffff16815260200191505060405180910390f35b34156100bc57600080fd5b6100e8600480803573ffffffffffffffffffffffffffffffffffffffff169060200190919050506101e6565b6040518080602001828103825283818151815260200191508051906020019080838360005b8381101561012857808201518184015260208101905061010d565b50505050905090810190601f1680156101555780820380516001836020036101000a031916815260200191505b509250505060405180910390f35b341561016e57600080fd5b6101be600480803590602001908201803590602001908080601f01602080910402602001604051908101604052809392919081815260200183838082843782019150505050505091905050610303565b005b600160009054906101000a900473ffffffffffffffffffffffffffffffffffffffff1681565b6101ee610466565b7fc28316d9c30123c3ae30cb652fc899def110a7d3c1d17839852bdd0318e76773426040518082815260200191505060405180910390a16000808373ffffffffffffffffffffffffffffffffffffffff1673ffffffffffffffffffffffffffffffffffffffff1681526020019081526020016000208054600181600116156101000203166002900480601f0160208091040260200160405190810160405280929190818152602001828054600181600116156101000203166002900480156102f75780601f106102cc576101008083540402835291602001916102f7565b820191906000526020600020905b8154815290600101906020018083116102da57829003601f168201915b50505050509050919050565b806000803373ffffffffffffffffffffffffffffffffffffffff1673ffffffffffffffffffffffffffffffffffffffff168152602001908152602001600020908051906020019061035592919061047a565b503373ffffffffffffffffffffffffffffffffffffffff167f96b7c0c8a98f4185ec7dbd9b7e8f70fc8aa220d6b0553e4e7a660d99663784646000803373ffffffffffffffffffffffffffffffffffffffff1673ffffffffffffffffffffffffffffffffffffffff16815260200190815260200160002060405180806020018281038252838181546001816001161561010002031660029004815260200191508054600181600116156101000203166002900480156104555780601f1061042a57610100808354040283529160200191610455565b820191906000526020600020905b81548152906001019060200180831161043857829003601f168201915b50509250505060405180910390a250565b602060405190810160405280600081525090565b828054600181600116156101000203166002900490600052602060002090601f016020900481019282601f106104bb57805160ff19168380011785556104e9565b828001600101855582156104e9579182015b828111156104e85782518255916020019190600101906104cd565b5b5090506104f691906104fa565b5090565b61051c91905b80821115610518576000816000905550600101610500565b5090565b905600a165627a7a72305820bbf51306c85e6cd577b38309d9ef1ec8d1b25dae5a911ff7a22e8da66f1bdb1a0029",
  "source": "pragma solidity ^0.4.18;\n\ncontract Todo {\n    mapping (address => string) private todos;\n    address public owner;\n\n    event TodoChange(\n      address indexed _from,\n      string todos\n    );\n\n    event GetTodoEvent(\n      uint timestamp\n    );\n\n    function Todo() public {\n      owner = msg.sender;\n    }\n\n    /* Functions */\n    function change(string todo) public {\n      todos[msg.sender] = todo;\n      TodoChange(msg.sender, todos[msg.sender]);\n    }\n\n    function getTodos(address addr) public  constant returns (string) {\n      GetTodoEvent(block.timestamp);\n      return todos[addr];\n    }\n}\n\n/* pragma solidity ^0.4.17;\n\ncontract Todo {\n  struct TodoItem {\n    string name; // name of the todo item\n    uint status; // status of the todo 0 = not_done, 1 = done\n  }\n\n mapping (address => TodoItem[]) todos;       // an array of TodoItem(s) assigned to each address(user)\n address public owner;\n\n\n\n  function Todo() public {\n    owner = msg.sender;\n  }\n\n  function add(string todo, uint status) public returns (string) {\n    todos.push(TodoItem(todo, status));\n    return todos[msg.sender];\n  }\n\n  function getTodos() public constant returns (string) {\n    return todos[msg.sender];\n  }\n  function kill() {\n    if (msg.sender == creator)  // only allow this action if the account sending the signal is the creator\n      suicide(creator);       // kills this contract and sends remaining funds back to creator\n  }\n} */\n",
  "sourcePath": "/Users/andrewpierno/Desktop/personal/dev/blockchain/ap_todo/contracts/Todo.sol",
  "compiler": {
    "name": "solc",
    "version": "0.4.18+commit.9cf6e910.Emscripten.clang"
  },
  "schemaVersion": "1.0.1",
  "updatedAt": "2017-12-27T12:04:51.758Z"
}